{
  "contractName": "Auction",
  "abi": [
    {
      "inputs": [],
      "stateMutability": "nonpayable",
      "type": "constructor"
    },
    {
      "anonymous": false,
      "inputs": [
        {
          "indexed": true,
          "internalType": "string",
          "name": "title",
          "type": "string"
        },
        {
          "indexed": true,
          "internalType": "uint256",
          "name": "amount",
          "type": "uint256"
        }
      ],
      "name": "LogBidPlaced",
      "type": "event"
    },
    {
      "anonymous": false,
      "inputs": [
        {
          "indexed": true,
          "internalType": "string",
          "name": "title",
          "type": "string"
        },
        {
          "indexed": true,
          "internalType": "uint256",
          "name": "basePrice",
          "type": "uint256"
        }
      ],
      "name": "LogItemAdded",
      "type": "event"
    },
    {
      "anonymous": false,
      "inputs": [
        {
          "indexed": true,
          "internalType": "address",
          "name": "previousOwner",
          "type": "address"
        },
        {
          "indexed": true,
          "internalType": "address",
          "name": "newOwner",
          "type": "address"
        }
      ],
      "name": "OwnershipTransferred",
      "type": "event"
    },
    {
      "inputs": [
        {
          "internalType": "uint256",
          "name": "",
          "type": "uint256"
        }
      ],
      "name": "catalogue",
      "outputs": [
        {
          "internalType": "uint256",
          "name": "itemId",
          "type": "uint256"
        },
        {
          "internalType": "uint256",
          "name": "basePrice",
          "type": "uint256"
        },
        {
          "internalType": "string",
          "name": "title",
          "type": "string"
        },
        {
          "internalType": "string",
          "name": "description",
          "type": "string"
        },
        {
          "internalType": "string",
          "name": "imgUrl",
          "type": "string"
        },
        {
          "internalType": "uint256",
          "name": "highestBid",
          "type": "uint256"
        },
        {
          "internalType": "address",
          "name": "highestBidder",
          "type": "address"
        },
        {
          "internalType": "bool",
          "name": "available",
          "type": "bool"
        }
      ],
      "stateMutability": "view",
      "type": "function",
      "constant": true
    },
    {
      "inputs": [
        {
          "internalType": "uint256",
          "name": "",
          "type": "uint256"
        }
      ],
      "name": "idList",
      "outputs": [
        {
          "internalType": "uint256",
          "name": "",
          "type": "uint256"
        }
      ],
      "stateMutability": "view",
      "type": "function",
      "constant": true
    },
    {
      "inputs": [],
      "name": "owner",
      "outputs": [
        {
          "internalType": "address",
          "name": "",
          "type": "address"
        }
      ],
      "stateMutability": "view",
      "type": "function",
      "constant": true
    },
    {
      "inputs": [],
      "name": "renounceOwnership",
      "outputs": [],
      "stateMutability": "nonpayable",
      "type": "function"
    },
    {
      "inputs": [
        {
          "internalType": "address",
          "name": "newOwner",
          "type": "address"
        }
      ],
      "name": "transferOwnership",
      "outputs": [],
      "stateMutability": "nonpayable",
      "type": "function"
    },
    {
      "inputs": [
        {
          "internalType": "uint256",
          "name": "_basePrice",
          "type": "uint256"
        },
        {
          "internalType": "string",
          "name": "_title",
          "type": "string"
        },
        {
          "internalType": "string",
          "name": "_description",
          "type": "string"
        },
        {
          "internalType": "string",
          "name": "_imgUrl",
          "type": "string"
        }
      ],
      "name": "addItem",
      "outputs": [],
      "stateMutability": "nonpayable",
      "type": "function"
    },
    {
      "inputs": [],
      "name": "get",
      "outputs": [
        {
          "components": [
            {
              "internalType": "uint256",
              "name": "itemId",
              "type": "uint256"
            },
            {
              "internalType": "uint256",
              "name": "basePrice",
              "type": "uint256"
            },
            {
              "internalType": "string",
              "name": "title",
              "type": "string"
            },
            {
              "internalType": "string",
              "name": "description",
              "type": "string"
            },
            {
              "internalType": "string",
              "name": "imgUrl",
              "type": "string"
            },
            {
              "internalType": "uint256",
              "name": "highestBid",
              "type": "uint256"
            },
            {
              "internalType": "address",
              "name": "highestBidder",
              "type": "address"
            },
            {
              "internalType": "bool",
              "name": "available",
              "type": "bool"
            }
          ],
          "internalType": "struct Auction.Item[]",
          "name": "",
          "type": "tuple[]"
        }
      ],
      "stateMutability": "view",
      "type": "function",
      "constant": true
    },
    {
      "inputs": [
        {
          "internalType": "uint256",
          "name": "itemId",
          "type": "uint256"
        },
        {
          "internalType": "uint256",
          "name": "amount",
          "type": "uint256"
        }
      ],
      "name": "bid",
      "outputs": [],
      "stateMutability": "nonpayable",
      "type": "function"
    }
  ],
  "bytecode": "0x60806040526064600355600060045534801561001a57600080fd5b5061003761002c61003c60201b60201c565b61004460201b60201c565b610108565b600033905090565b60008060009054906101000a900473ffffffffffffffffffffffffffffffffffffffff169050816000806101000a81548173ffffffffffffffffffffffffffffffffffffffff021916908373ffffffffffffffffffffffffffffffffffffffff1602179055508173ffffffffffffffffffffffffffffffffffffffff168173ffffffffffffffffffffffffffffffffffffffff167f8be0079c531659141344cd1fd0a4f28419497f9722a3daafe3b4186f6b6457e060405160405180910390a35050565b611912806101176000396000f3fe608060405234801561001057600080fd5b50600436106100885760003560e01c8063715018a61161005b578063715018a61461012e5780638da5cb5b14610138578063da03e92214610156578063f2fde38b1461017257610088565b80631e0d95601461008d578063598647f8146100c45780636313531f146100e05780636d4ce63c14610110575b600080fd5b6100a760048036038101906100a29190610e18565b61018e565b6040516100bb989796959493929190610f49565b60405180910390f35b6100de60048036038101906100d99190610fdc565b61039b565b005b6100fa60048036038101906100f59190610e18565b610522565b604051610107919061101c565b60405180910390f35b610118610546565b604051610125919061122e565b60405180910390f35b61013661086a565b005b6101406108f2565b60405161014d9190611250565b60405180910390f35b610170600480360381019061016b91906113a0565b61091b565b005b61018c60048036038101906101879190611487565b610b0a565b005b60066020528060005260406000206000915090508060000154908060010154908060020180546101bd906114e3565b80601f01602080910402602001604051908101604052809291908181526020018280546101e9906114e3565b80156102365780601f1061020b57610100808354040283529160200191610236565b820191906000526020600020905b81548152906001019060200180831161021957829003601f168201915b50505050509080600301805461024b906114e3565b80601f0160208091040260200160405190810160405280929190818152602001828054610277906114e3565b80156102c45780601f10610299576101008083540402835291602001916102c4565b820191906000526020600020905b8154815290600101906020018083116102a757829003601f168201915b5050505050908060040180546102d9906114e3565b80601f0160208091040260200160405190810160405280929190818152602001828054610305906114e3565b80156103525780601f1061032757610100808354040283529160200191610352565b820191906000526020600020905b81548152906001019060200180831161033557829003601f168201915b5050505050908060050154908060060160009054906101000a900473ffffffffffffffffffffffffffffffffffffffff16908060060160149054906101000a900460ff16905088565b6006600083815260200190815260200160002060060160149054906101000a900460ff166103fe576040517f08c379a00000000000000000000000000000000000000000000000000000000081526004016103f590611587565b60405180910390fd5b80600660008481526020019081526020016000206005015410610456576040517f08c379a000000000000000000000000000000000000000000000000000000000815260040161044d90611619565b60405180910390fd5b806006600084815260200190815260200160002060050181905550336006600084815260200190815260200160002060060160006101000a81548173ffffffffffffffffffffffffffffffffffffffff021916908373ffffffffffffffffffffffffffffffffffffffff16021790555080600660008481526020019081526020016000206002016040516104ea91906116d8565b60405180910390207ffbd64afcd473d0fdba4e37c580ca7bcefee8aab9b4c0f15c00a33c667ea4f57360405160405180910390a35050565b6005818154811061053257600080fd5b906000526020600020016000915090505481565b6060600060045467ffffffffffffffff81111561056657610565611275565b5b60405190808252806020026020018201604052801561059f57816020015b61058c610cce565b8152602001906001900390816105845790505b50905060005b6004548110156108625760066000600583815481106105c7576105c66116ef565b5b90600052602060002001548152602001908152602001600020604051806101000160405290816000820154815260200160018201548152602001600282018054610610906114e3565b80601f016020809104026020016040519081016040528092919081815260200182805461063c906114e3565b80156106895780601f1061065e57610100808354040283529160200191610689565b820191906000526020600020905b81548152906001019060200180831161066c57829003601f168201915b505050505081526020016003820180546106a2906114e3565b80601f01602080910402602001604051908101604052809291908181526020018280546106ce906114e3565b801561071b5780601f106106f05761010080835404028352916020019161071b565b820191906000526020600020905b8154815290600101906020018083116106fe57829003601f168201915b50505050508152602001600482018054610734906114e3565b80601f0160208091040260200160405190810160405280929190818152602001828054610760906114e3565b80156107ad5780601f10610782576101008083540402835291602001916107ad565b820191906000526020600020905b81548152906001019060200180831161079057829003601f168201915b50505050508152602001600582015481526020016006820160009054906101000a900473ffffffffffffffffffffffffffffffffffffffff1673ffffffffffffffffffffffffffffffffffffffff1673ffffffffffffffffffffffffffffffffffffffff1681526020016006820160149054906101000a900460ff161515151581525050828281518110610844576108436116ef565b5b6020026020010181905250808061085a9061174d565b9150506105a5565b508091505090565b610872610c02565b73ffffffffffffffffffffffffffffffffffffffff166108906108f2565b73ffffffffffffffffffffffffffffffffffffffff16146108e6576040517f08c379a00000000000000000000000000000000000000000000000000000000081526004016108dd906117e2565b60405180910390fd5b6108f06000610c0a565b565b60008060009054906101000a900473ffffffffffffffffffffffffffffffffffffffff16905090565b604051806101000160405280600354815260200185815260200184815260200183815260200182815260200160008152602001600073ffffffffffffffffffffffffffffffffffffffff16815260200160011515815250600660006003548152602001908152602001600020600082015181600001556020820151816001015560408201518160020190805190602001906109b7929190610d2b565b5060608201518160030190805190602001906109d4929190610d2b565b5060808201518160040190805190602001906109f1929190610d2b565b5060a0820151816005015560c08201518160060160006101000a81548173ffffffffffffffffffffffffffffffffffffffff021916908373ffffffffffffffffffffffffffffffffffffffff16021790555060e08201518160060160146101000a81548160ff0219169083151502179055509050506005600354908060018154018082558091505060019003906000526020600020016000909190919091505560046000815480929190610aa49061174d565b919050555060036000815480929190610abc9061174d565b91905055508383604051610ad09190611833565b60405180910390207fa3008ce4b5fd9539afdacadda2ae83ce09bdb49c9cf373eda63954cbca6edbae60405160405180910390a350505050565b610b12610c02565b73ffffffffffffffffffffffffffffffffffffffff16610b306108f2565b73ffffffffffffffffffffffffffffffffffffffff1614610b86576040517f08c379a0000000000000000000000000000000000000000000000000000000008152600401610b7d906117e2565b60405180910390fd5b600073ffffffffffffffffffffffffffffffffffffffff168173ffffffffffffffffffffffffffffffffffffffff161415610bf6576040517f08c379a0000000000000000000000000000000000000000000000000000000008152600401610bed906118bc565b60405180910390fd5b610bff81610c0a565b50565b600033905090565b60008060009054906101000a900473ffffffffffffffffffffffffffffffffffffffff169050816000806101000a81548173ffffffffffffffffffffffffffffffffffffffff021916908373ffffffffffffffffffffffffffffffffffffffff1602179055508173ffffffffffffffffffffffffffffffffffffffff168173ffffffffffffffffffffffffffffffffffffffff167f8be0079c531659141344cd1fd0a4f28419497f9722a3daafe3b4186f6b6457e060405160405180910390a35050565b604051806101000160405280600081526020016000815260200160608152602001606081526020016060815260200160008152602001600073ffffffffffffffffffffffffffffffffffffffff1681526020016000151581525090565b828054610d37906114e3565b90600052602060002090601f016020900481019282610d595760008555610da0565b82601f10610d7257805160ff1916838001178555610da0565b82800160010185558215610da0579182015b82811115610d9f578251825591602001919060010190610d84565b5b509050610dad9190610db1565b5090565b5b80821115610dca576000816000905550600101610db2565b5090565b6000604051905090565b600080fd5b600080fd5b6000819050919050565b610df581610de2565b8114610e0057600080fd5b50565b600081359050610e1281610dec565b92915050565b600060208284031215610e2e57610e2d610dd8565b5b6000610e3c84828501610e03565b91505092915050565b610e4e81610de2565b82525050565b600081519050919050565b600082825260208201905092915050565b60005b83811015610e8e578082015181840152602081019050610e73565b83811115610e9d576000848401525b50505050565b6000601f19601f8301169050919050565b6000610ebf82610e54565b610ec98185610e5f565b9350610ed9818560208601610e70565b610ee281610ea3565b840191505092915050565b600073ffffffffffffffffffffffffffffffffffffffff82169050919050565b6000610f1882610eed565b9050919050565b610f2881610f0d565b82525050565b60008115159050919050565b610f4381610f2e565b82525050565b600061010082019050610f5f600083018b610e45565b610f6c602083018a610e45565b8181036040830152610f7e8189610eb4565b90508181036060830152610f928188610eb4565b90508181036080830152610fa68187610eb4565b9050610fb560a0830186610e45565b610fc260c0830185610f1f565b610fcf60e0830184610f3a565b9998505050505050505050565b60008060408385031215610ff357610ff2610dd8565b5b600061100185828601610e03565b925050602061101285828601610e03565b9150509250929050565b60006020820190506110316000830184610e45565b92915050565b600081519050919050565b600082825260208201905092915050565b6000819050602082019050919050565b61106c81610de2565b82525050565b600082825260208201905092915050565b600061108e82610e54565b6110988185611072565b93506110a8818560208601610e70565b6110b181610ea3565b840191505092915050565b6110c581610f0d565b82525050565b6110d481610f2e565b82525050565b6000610100830160008301516110f36000860182611063565b5060208301516111066020860182611063565b506040830151848203604086015261111e8282611083565b915050606083015184820360608601526111388282611083565b915050608083015184820360808601526111528282611083565b91505060a083015161116760a0860182611063565b5060c083015161117a60c08601826110bc565b5060e083015161118d60e08601826110cb565b508091505092915050565b60006111a483836110da565b905092915050565b6000602082019050919050565b60006111c482611037565b6111ce8185611042565b9350836020820285016111e085611053565b8060005b8581101561121c57848403895281516111fd8582611198565b9450611208836111ac565b925060208a019950506001810190506111e4565b50829750879550505050505092915050565b6000602082019050818103600083015261124881846111b9565b905092915050565b60006020820190506112656000830184610f1f565b92915050565b600080fd5b600080fd5b7f4e487b7100000000000000000000000000000000000000000000000000000000600052604160045260246000fd5b6112ad82610ea3565b810181811067ffffffffffffffff821117156112cc576112cb611275565b5b80604052505050565b60006112df610dce565b90506112eb82826112a4565b919050565b600067ffffffffffffffff82111561130b5761130a611275565b5b61131482610ea3565b9050602081019050919050565b82818337600083830152505050565b600061134361133e846112f0565b6112d5565b90508281526020810184848401111561135f5761135e611270565b5b61136a848285611321565b509392505050565b600082601f8301126113875761138661126b565b5b8135611397848260208601611330565b91505092915050565b600080600080608085870312156113ba576113b9610dd8565b5b60006113c887828801610e03565b945050602085013567ffffffffffffffff8111156113e9576113e8610ddd565b5b6113f587828801611372565b935050604085013567ffffffffffffffff81111561141657611415610ddd565b5b61142287828801611372565b925050606085013567ffffffffffffffff81111561144357611442610ddd565b5b61144f87828801611372565b91505092959194509250565b61146481610f0d565b811461146f57600080fd5b50565b6000813590506114818161145b565b92915050565b60006020828403121561149d5761149c610dd8565b5b60006114ab84828501611472565b91505092915050565b7f4e487b7100000000000000000000000000000000000000000000000000000000600052602260045260246000fd5b600060028204905060018216806114fb57607f821691505b6020821081141561150f5761150e6114b4565b5b50919050565b7f4974656d20646f6573206e6f74206578697374206f72206973206e6f7420617060008201527f706c696361626c6520666f722062696464696e672e0000000000000000000000602082015250565b6000611571603583610e5f565b915061157c82611515565b604082019050919050565b600060208201905081810360008301526115a081611564565b9050919050565b7f4269642073686f756c6420626520686967686572207468616e2070726576696f60008201527f75732e0000000000000000000000000000000000000000000000000000000000602082015250565b6000611603602383610e5f565b915061160e826115a7565b604082019050919050565b60006020820190508181036000830152611632816115f6565b9050919050565b600081905092915050565b60008190508160005260206000209050919050565b60008154611666816114e3565b6116708186611639565b9450600182166000811461168b576001811461169c576116cf565b60ff198316865281860193506116cf565b6116a585611644565b60005b838110156116c7578154818901526001820191506020810190506116a8565b838801955050505b50505092915050565b60006116e48284611659565b915081905092915050565b7f4e487b7100000000000000000000000000000000000000000000000000000000600052603260045260246000fd5b7f4e487b7100000000000000000000000000000000000000000000000000000000600052601160045260246000fd5b600061175882610de2565b91507fffffffffffffffffffffffffffffffffffffffffffffffffffffffffffffffff82141561178b5761178a61171e565b5b600182019050919050565b7f4f776e61626c653a2063616c6c6572206973206e6f7420746865206f776e6572600082015250565b60006117cc602083610e5f565b91506117d782611796565b602082019050919050565b600060208201905081810360008301526117fb816117bf565b9050919050565b600061180d82610e54565b6118178185611639565b9350611827818560208601610e70565b80840191505092915050565b600061183f8284611802565b915081905092915050565b7f4f776e61626c653a206e6577206f776e657220697320746865207a65726f206160008201527f6464726573730000000000000000000000000000000000000000000000000000602082015250565b60006118a6602683610e5f565b91506118b18261184a565b604082019050919050565b600060208201905081810360008301526118d581611899565b905091905056fea26469706673582212203955ba071e39545b3eb1ec28fba66acfb6e77ef021c766636894ceaf28b1025764736f6c634300080a0033",
  "immutableReferences": {},
  "source": "// SPDX-License-Identifier: MIT\npragma solidity >=0.4.22 <0.9.0;\nimport \"@openzeppelin/contracts/access/Ownable.sol\";\n\n\n/// @title An auction management contract\n/// @author Pelema A. \n/// @notice This is still experimental, not  for production\ncontract Auction is Ownable {\n    uint begins;\n    uint ends;\n    uint itemIdCounter = 100;\n    uint itemCount = 0;\n    uint[] public idList;\n\n    // Stored list of items available for aution\n    mapping(uint256 => Item) public catalogue;\n    struct Item {\n        uint itemId;\n        uint basePrice;\n        string title;\n        string description;\n        string imgUrl;\n        uint highestBid;\n        address highestBidder;\n        bool available;\n    }\n\n    constructor() {}\n\n    event LogItemAdded(string indexed title, uint indexed basePrice);\n    event LogBidPlaced(string indexed title, uint indexed amount);\n\n    /// @param _basePrice Lowest amount to bid\n    function addItem(\n        uint _basePrice,\n        string memory _title,\n        string memory _description,\n        string memory _imgUrl\n    ) public {\n        catalogue[itemIdCounter] = Item({\n            itemId: itemIdCounter,\n            title: _title,\n            description: _description,\n            imgUrl: _imgUrl,\n            basePrice: _basePrice,\n            highestBid: 0,\n            highestBidder: address(0),\n            available: true\n        });\n        idList.push(itemIdCounter);\n        itemCount++;\n        itemIdCounter++;\n        emit LogItemAdded(_title, _basePrice);\n    }\n\n    function get() public view returns (Item[] memory) {\n        Item[] memory ret = new Item[](itemCount);\n        for (uint i = 0; i < itemCount; i++) {\n            ret[i] = catalogue[idList[i]];\n        }\n        return ret;\n    }\n\n    function bid(uint itemId, uint amount) public {\n        // require(!isOwner(msg.sender));\n        require(catalogue[itemId].available, \"Item does not exist or is not applicable for bidding.\");\n        require(catalogue[itemId].highestBid < amount, \"Bid should be higher than previous.\");\n\n        catalogue[itemId].highestBid = amount;\n        catalogue[itemId].highestBidder = msg.sender;\n\n        emit LogBidPlaced(catalogue[itemId].title, amount);\n    }\n}\n",
  "sourcePath": "/home/hexx/Desktop/blockchain-developer-bootcamp-final-project/contracts/Auction.sol",
  "compiler": {
    "name": "solc",
    "version": "0.8.10+commit.fc410830.Emscripten.clang"
  },
  "schemaVersion": "3.4.4",
  "updatedAt": "2022-01-10T05:15:20.201Z",
  "networkType": "ethereum",
  "devdoc": {
    "author": "Pelema A. ",
    "kind": "dev",
    "methods": {
      "addItem(uint256,string,string,string)": {
        "params": {
          "_basePrice": "Lowest amount to bid"
        }
      },
      "owner()": {
        "details": "Returns the address of the current owner."
      },
      "renounceOwnership()": {
        "details": "Leaves the contract without owner. It will not be possible to call `onlyOwner` functions anymore. Can only be called by the current owner. NOTE: Renouncing ownership will leave the contract without an owner, thereby removing any functionality that is only available to the owner."
      },
      "transferOwnership(address)": {
        "details": "Transfers ownership of the contract to a new account (`newOwner`). Can only be called by the current owner."
      }
    },
    "title": "An auction management contract",
    "version": 1
  },
  "userdoc": {
    "kind": "user",
    "methods": {},
    "notice": "This is still experimental, not  for production",
    "version": 1
  }
}